{
  "_format": "hh-sol-artifact-1",
  "contractName": "NexusLibrary",
  "sourceName": "src/nexus/NexusLibrary.sol",
  "abi": [
    {
      "inputs": [],
      "name": "IncorrectAmountSent",
      "type": "error"
    },
    {
      "inputs": [],
      "name": "IncorrectNexusFee",
      "type": "error"
    },
    {
      "inputs": [],
      "name": "IncorrectWithdrawalCredentials",
      "type": "error"
    },
    {
      "inputs": [],
      "name": "NotDAO",
      "type": "error"
    },
    {
      "inputs": [],
      "name": "NotNexus",
      "type": "error"
    },
    {
      "inputs": [],
      "name": "StakingLimitExceeding",
      "type": "error"
    },
    {
      "inputs": [],
      "name": "ValidatorNotExited",
      "type": "error"
    },
    {
      "inputs": [],
      "name": "WaitingForValidatorExits",
      "type": "error"
    },
    {
      "anonymous": false,
      "inputs": [
        {
          "indexed": false,
          "internalType": "uint256",
          "name": "_nexus_fee",
          "type": "uint256"
        }
      ],
      "name": "NexusFeeChanged",
      "type": "event"
    },
    {
      "anonymous": false,
      "inputs": [
        {
          "indexed": false,
          "internalType": "uint256",
          "name": "amount",
          "type": "uint256"
        }
      ],
      "name": "NexusRewardsRedeemed",
      "type": "event"
    },
    {
      "anonymous": false,
      "inputs": [
        {
          "indexed": false,
          "internalType": "uint256",
          "name": "amount",
          "type": "uint256"
        }
      ],
      "name": "RewardsRedeemed",
      "type": "event"
    },
    {
      "anonymous": false,
      "inputs": [
        {
          "indexed": false,
          "internalType": "uint256",
          "name": "amount",
          "type": "uint256"
        }
      ],
      "name": "SlashingUpdated",
      "type": "event"
    },
    {
      "inputs": [],
      "name": "AMOUNT_DEPOSITED_SLOT",
      "outputs": [
        {
          "internalType": "bytes32",
          "name": "",
          "type": "bytes32"
        }
      ],
      "stateMutability": "view",
      "type": "function"
    },
    {
      "inputs": [],
      "name": "AMOUNT_SLASHED_SLOT",
      "outputs": [
        {
          "internalType": "bytes32",
          "name": "",
          "type": "bytes32"
        }
      ],
      "stateMutability": "view",
      "type": "function"
    },
    {
      "inputs": [],
      "name": "AMOUNT_WITHDRAWN_SLOT",
      "outputs": [
        {
          "internalType": "bytes32",
          "name": "",
          "type": "bytes32"
        }
      ],
      "stateMutability": "view",
      "type": "function"
    },
    {
      "inputs": [],
      "name": "BASIS_POINT",
      "outputs": [
        {
          "internalType": "uint256",
          "name": "",
          "type": "uint256"
        }
      ],
      "stateMutability": "view",
      "type": "function"
    },
    {
      "inputs": [],
      "name": "DAO",
      "outputs": [
        {
          "internalType": "address",
          "name": "",
          "type": "address"
        }
      ],
      "stateMutability": "view",
      "type": "function"
    },
    {
      "inputs": [],
      "name": "DEPOSIT_CONTRACT",
      "outputs": [
        {
          "internalType": "address",
          "name": "",
          "type": "address"
        }
      ],
      "stateMutability": "view",
      "type": "function"
    },
    {
      "inputs": [],
      "name": "NEXUS_FEE_ADDRESS",
      "outputs": [
        {
          "internalType": "address",
          "name": "",
          "type": "address"
        }
      ],
      "stateMutability": "view",
      "type": "function"
    },
    {
      "inputs": [],
      "name": "NEXUS_FEE_PERCENTAGE_SLOT",
      "outputs": [
        {
          "internalType": "bytes32",
          "name": "",
          "type": "bytes32"
        }
      ],
      "stateMutability": "view",
      "type": "function"
    },
    {
      "inputs": [],
      "name": "NEXUS_NETWORK",
      "outputs": [
        {
          "internalType": "address",
          "name": "",
          "type": "address"
        }
      ],
      "stateMutability": "view",
      "type": "function"
    },
    {
      "inputs": [],
      "name": "REWARDS_CLAIMED_SLOT",
      "outputs": [
        {
          "internalType": "bytes32",
          "name": "",
          "type": "bytes32"
        }
      ],
      "stateMutability": "view",
      "type": "function"
    },
    {
      "inputs": [],
      "name": "VALIDATOR_COUNT_SLOT",
      "outputs": [
        {
          "internalType": "bytes32",
          "name": "",
          "type": "bytes32"
        }
      ],
      "stateMutability": "view",
      "type": "function"
    },
    {
      "inputs": [],
      "name": "VALIDATOR_DEPOSIT",
      "outputs": [
        {
          "internalType": "uint256",
          "name": "",
          "type": "uint256"
        }
      ],
      "stateMutability": "view",
      "type": "function"
    },
    {
      "inputs": [],
      "name": "balance",
      "outputs": [
        {
          "internalType": "uint256",
          "name": "",
          "type": "uint256"
        }
      ],
      "stateMutability": "view",
      "type": "function"
    },
    {
      "inputs": [
        {
          "components": [
            {
              "internalType": "bytes",
              "name": "pubKey",
              "type": "bytes"
            },
            {
              "internalType": "bytes",
              "name": "withdrawalAddress",
              "type": "bytes"
            },
            {
              "internalType": "bytes",
              "name": "signature",
              "type": "bytes"
            },
            {
              "internalType": "bytes32",
              "name": "depositRoot",
              "type": "bytes32"
            }
          ],
          "internalType": "struct INexusInterface.Validator[]",
          "name": "_validators",
          "type": "tuple[]"
        },
        {
          "internalType": "uint256",
          "name": "stakingLimit",
          "type": "uint256"
        }
      ],
      "name": "depositValidatorNexus",
      "outputs": [],
      "stateMutability": "nonpayable",
      "type": "function"
    },
    {
      "inputs": [],
      "name": "getRewards",
      "outputs": [
        {
          "internalType": "uint256",
          "name": "",
          "type": "uint256"
        }
      ],
      "stateMutability": "view",
      "type": "function"
    },
    {
      "inputs": [
        {
          "internalType": "bytes32",
          "name": "_slot",
          "type": "bytes32"
        }
      ],
      "name": "getVariable",
      "outputs": [
        {
          "internalType": "uint256",
          "name": "",
          "type": "uint256"
        }
      ],
      "stateMutability": "view",
      "type": "function"
    },
    {
      "inputs": [
        {
          "internalType": "uint256",
          "name": "amount",
          "type": "uint256"
        }
      ],
      "name": "recieveExecutionRewards",
      "outputs": [],
      "stateMutability": "payable",
      "type": "function"
    },
    {
      "inputs": [
        {
          "internalType": "address",
          "name": "reward_account",
          "type": "address"
        },
        {
          "internalType": "uint256",
          "name": "expectedFee",
          "type": "uint256"
        }
      ],
      "name": "redeemRewards",
      "outputs": [],
      "stateMutability": "nonpayable",
      "type": "function"
    },
    {
      "inputs": [
        {
          "internalType": "uint256",
          "name": "_nexus_fee",
          "type": "uint256"
        }
      ],
      "name": "setNexusFee",
      "outputs": [],
      "stateMutability": "nonpayable",
      "type": "function"
    },
    {
      "inputs": [],
      "name": "updateExitedValidators",
      "outputs": [],
      "stateMutability": "nonpayable",
      "type": "function"
    },
    {
      "inputs": [
        {
          "internalType": "uint256",
          "name": "amount",
          "type": "uint256"
        }
      ],
      "name": "validatorsSlashed",
      "outputs": [],
      "stateMutability": "nonpayable",
      "type": "function"
    }
  ],
  "bytecode": "0x608060405234801561001057600080fd5b50610fc6806100206000396000f3fe60806040526004361061012a5760003560e01c80636b96736b116100ab578063b69ef8a81161006f578063b69ef8a814610346578063bf7acc871461035b578063c06546001461037d578063f2e042d8146103a5578063f350df10146103ba578063f4d0c2b8146103cd57600080fd5b80636b96736b1461029e57806376d413d8146102c657806398fabd3a146102e65780639f50e3751461030e578063ada5f6421461033057600080fd5b806343d014d0116100f257806343d014d0146101fd578063441d92cc1461021f57806350b4e89c1461023c57806354a991081461025c578063607ebc821461027e57600080fd5b80630572b0cc1461012f57806312934e24146101575780632582c134146101795780632b674aaa1461019b5780633dff7e60146101db575b600080fd5b34801561013b57600080fd5b506101446103ec565b6040519081526020015b60405180910390f35b34801561016357600080fd5b50610144600080516020610f1183398151915281565b34801561018557600080fd5b50610144600080516020610ed183398151915281565b3480156101a757600080fd5b506101c373735bf02e4435dfadfe47a5fe5fbd42ef375864a981565b6040516001600160a01b03909116815260200161014e565b3480156101e757600080fd5b50610144600080516020610f5183398151915281565b34801561020957600080fd5b5061021d610218366004610c3b565b61049a565b005b34801561022b57600080fd5b506101446801bc16d674ec80000081565b34801561024857600080fd5b5061021d610257366004610c3b565b61051b565b34801561026857600080fd5b50610144600080516020610f7183398151915281565b34801561028a57600080fd5b5061021d610299366004610c54565b6105e2565b3480156102aa57600080fd5b506101c373424242424242424242424242424242424242424281565b3480156102d257600080fd5b5061021d6102e1366004610ccf565b6108e4565b3480156102f257600080fd5b506101c37314630e0428b9bba12896402257fa09035f9f744781565b34801561031a57600080fd5b50610144600080516020610ef183398151915281565b34801561033c57600080fd5b5061014461271081565b34801561035257600080fd5b50610144610b3e565b34801561036757600080fd5b50610144600080516020610f3183398151915281565b34801561038957600080fd5b506101c373c0cb8f6c08ab23de6c2a73c49481fe112704f1b681565b3480156103b157600080fd5b5061021d610b75565b61021d6103c8366004610c3b565b610c1b565b3480156103d957600080fd5b506101446103e8366004610c3b565b5490565b600080610405600080516020610ed18339815191525490565b9050600061041f600080516020610ef18339815191525490565b90506000610439600080516020610f718339815191525490565b90506000610453600080516020610f518339815191525490565b9050806104608385610d1d565b6104736801bc16d674ec80000087610d34565b61047d9047610d53565b6104879190610d1d565b6104919190610d1d565b94505050505090565b3373c0cb8f6c08ab23de6c2a73c49481fe112704f1b6146104ce5760405163114eded760e21b815260040160405180910390fd5b6104e5600080516020610f51833981519152829055565b6040518181527f9e042ab02ef422df0ee0d14f8bb3d3078701a8e326601acb4a698000ddbe85239060200160405180910390a150565b3373c0cb8f6c08ab23de6c2a73c49481fe112704f1b61461054f5760405163114eded760e21b815260040160405180910390fd5b8061055d600a612710610d6b565b81118061057657506105726014612710610d6b565b8111155b1561059457604051630720016b60e11b815260040160405180910390fd5b6105ab600080516020610f11833981519152839055565b6040518281527f9eb5eec5ae5d25123c231c25fd365a4de7207a249177319967350ff8be68c5909060200160405180910390a15050565b3373c0cb8f6c08ab23de6c2a73c49481fe112704f1b6146106165760405163114eded760e21b815260040160405180910390fd5b600061062e600080516020610ed18339815191525490565b905060006801bc16d674ec8000006106468584610d53565b6106509190610d34565b90508261065d8247610d53565b61066961271084610d34565b6106739190610d6b565b1115610692576040516342ae1a0360e11b815260040160405180910390fd5b60005b848110156108b95760008686838181106106b1576106b1610d8d565b90506020028101906106c39190610da3565b6106d1906020810190610dc3565b6106df91600c908290610e11565b8080601f016020809104026020016040519081016040528093929190818152602001838380828437600092019190915250506040516bffffffffffffffffffffffff193060601b166020820152929350506034909101905060405160208183030381529060405280519060200120818051906020012014610773576040516371b37a2760e11b815260040160405180910390fd5b73424242424242424242424242424242424242424263228951186801bc16d674ec8000008989868181106107a9576107a9610d8d565b90506020028101906107bb9190610da3565b6107c59080610dc3565b8b8b888181106107d7576107d7610d8d565b90506020028101906107e99190610da3565b6107f7906020810190610dc3565b8d8d8a81811061080957610809610d8d565b905060200281019061081b9190610da3565b610829906040810190610dc3565b8f8f8c81811061083b5761083b610d8d565b905060200281019061084d9190610da3565b606001356040518963ffffffff1660e01b81526004016108739796959493929190610e64565b6000604051808303818588803b15801561088c57600080fd5b505af11580156108a0573d6000803e3d6000fd5b50505050505080806108b190610eb5565b915050610695565b506108c48483610d53565b91506108dd600080516020610ed1833981519152839055565b5050505050565b337314630e0428b9bba12896402257fa09035f9f744714610918576040516327568d2f60e11b815260040160405180910390fd5b6000610930600080516020610f118339815191525490565b905080821461095257604051630720016b60e11b815260040160405180910390fd5b600061095c6103ec565b90506801bc16d674ec80000081111561098857604051634e7f1cd360e11b815260040160405180910390fd5b60006127106109978385610d34565b6109a19190610d6b565b905060008073735bf02e4435dfadfe47a5fe5fbd42ef375864a96001600160a01b03168361138890604051600060405180830381858888f193505050503d8060008114610a0a576040519150601f19603f3d011682016040523d82523d6000602084013e610a0f565b606091505b50915091508115610a4e576040518381527f26de9ddfbac11d8e750ebe13aebe9fc2c31a88ba7cbaacf3473db3a99918a6fb9060200160405180910390a15b6000806001600160a01b038916610a658688610d1d565b60405161138891906000818181858888f193505050503d8060008114610aa7576040519150601f19603f3d011682016040523d82523d6000602084013e610aac565b606091505b5090925090506000610aca600080516020610f318339815191525490565b9050610ad68782610d53565b9050610aef600080516020610f31833981519152829055565b8215610b32577f0c511a639c6fb770d88568ff22ef39f976086c9bd6d383d9bfd51f535589e40e610b208789610d1d565b60405190815260200160405180910390a15b50505050505050505050565b6000610b56600080516020610f718339815191525490565b600080516020610ef183398151915254610b709190610d1d565b905090565b3373c0cb8f6c08ab23de6c2a73c49481fe112704f1b614610ba95760405163114eded760e21b815260040160405180910390fd5b6801bc16d674ec800000610bbb6103ec565b1015610bda576040516379298a5360e11b815260040160405180910390fd5b6000610bf2600080516020610ed18339815191525490565b9050610bff600182610d1d565b9050610c18600080516020610ed1833981519152829055565b50565b348114610c18576040516319a6bd0f60e01b815260040160405180910390fd5b600060208284031215610c4d57600080fd5b5035919050565b600080600060408486031215610c6957600080fd5b833567ffffffffffffffff80821115610c8157600080fd5b818601915086601f830112610c9557600080fd5b813581811115610ca457600080fd5b8760208260051b8501011115610cb957600080fd5b6020928301989097509590910135949350505050565b60008060408385031215610ce257600080fd5b82356001600160a01b0381168114610cf957600080fd5b946020939093013593505050565b634e487b7160e01b600052601160045260246000fd5b600082821015610d2f57610d2f610d07565b500390565b6000816000190483118215151615610d4e57610d4e610d07565b500290565b60008219821115610d6657610d66610d07565b500190565b600082610d8857634e487b7160e01b600052601260045260246000fd5b500490565b634e487b7160e01b600052603260045260246000fd5b60008235607e19833603018112610db957600080fd5b9190910192915050565b6000808335601e19843603018112610dda57600080fd5b83018035915067ffffffffffffffff821115610df557600080fd5b602001915036819003821315610e0a57600080fd5b9250929050565b60008085851115610e2157600080fd5b83861115610e2e57600080fd5b5050820193919092039150565b81835281816020850137506000828201602090810191909152601f909101601f19169091010190565b608081526000610e7860808301898b610e3b565b8281036020840152610e8b81888a610e3b565b90508281036040840152610ea0818688610e3b565b91505082606083015298975050505050505050565b6000600019821415610ec957610ec9610d07565b506001019056fe2d5a8d8ceecd33ab6923979e59fb92c16d966ad0b4d5ecdfb4adac6bafdd0ae5ca4e9536f4b6163e8b3c485d13888b64170049f120695cca4a7920674f669123ac871e33a0d6f83ef496541ab4d2cb28c9c72346647360c557889bbd13ec109d9fbc0f1af8e544d8995616c6f64d9fc6ca8bf8885fb0f08f57738b97334c0f7367a602d91fdafa346635ea0b2cfecfa87c6c87b3eb52ac04414bcb5fffd82e5f0727682b75deaf0886514bd82c90f1c6e80521cdb4aeb9ed6f2ada2d5f20f112a2646970667358221220ffadf61175310c20c662ff9bd5a11dce1c7bf87a798d78de62bcbbbf8c2e602d64736f6c63430008090033",
  "linkReferences": {},
  "deployedLinkReferences": {}
}